{
  "address": "0xb45e63785Ea9b862fdca4E4CFf8D1B1adA83B811",
  "abi": [
    {
      "inputs": [
        {
          "internalType": "bytes32",
          "name": "key",
          "type": "bytes32"
        }
      ],
      "name": "PositionNotFound",
      "type": "error"
    },
    {
      "inputs": [],
      "name": "ACCOUNT",
      "outputs": [
        {
          "internalType": "bytes32",
          "name": "",
          "type": "bytes32"
        }
      ],
      "stateMutability": "view",
      "type": "function"
    },
    {
      "inputs": [],
      "name": "BORROWING_FACTOR",
      "outputs": [
        {
          "internalType": "bytes32",
          "name": "",
          "type": "bytes32"
        }
      ],
      "stateMutability": "view",
      "type": "function"
    },
    {
      "inputs": [],
      "name": "COLLATERAL_AMOUNT",
      "outputs": [
        {
          "internalType": "bytes32",
          "name": "",
          "type": "bytes32"
        }
      ],
      "stateMutability": "view",
      "type": "function"
    },
    {
      "inputs": [],
      "name": "COLLATERAL_TOKEN",
      "outputs": [
        {
          "internalType": "bytes32",
          "name": "",
          "type": "bytes32"
        }
      ],
      "stateMutability": "view",
      "type": "function"
    },
    {
      "inputs": [],
      "name": "DECREASED_AT_BLOCK",
      "outputs": [
        {
          "internalType": "bytes32",
          "name": "",
          "type": "bytes32"
        }
      ],
      "stateMutability": "view",
      "type": "function"
    },
    {
      "inputs": [],
      "name": "FUNDING_FEE_AMOUNT_PER_SIZE",
      "outputs": [
        {
          "internalType": "bytes32",
          "name": "",
          "type": "bytes32"
        }
      ],
      "stateMutability": "view",
      "type": "function"
    },
    {
      "inputs": [],
      "name": "INCREASED_AT_BLOCK",
      "outputs": [
        {
          "internalType": "bytes32",
          "name": "",
          "type": "bytes32"
        }
      ],
      "stateMutability": "view",
      "type": "function"
    },
    {
      "inputs": [],
      "name": "IS_LONG",
      "outputs": [
        {
          "internalType": "bytes32",
          "name": "",
          "type": "bytes32"
        }
      ],
      "stateMutability": "view",
      "type": "function"
    },
    {
      "inputs": [],
      "name": "LONG_TOKEN_CLAIMABLE_FUNDING_AMOUNT_PER_SIZE",
      "outputs": [
        {
          "internalType": "bytes32",
          "name": "",
          "type": "bytes32"
        }
      ],
      "stateMutability": "view",
      "type": "function"
    },
    {
      "inputs": [],
      "name": "MARKET",
      "outputs": [
        {
          "internalType": "bytes32",
          "name": "",
          "type": "bytes32"
        }
      ],
      "stateMutability": "view",
      "type": "function"
    },
    {
      "inputs": [],
      "name": "SHORT_TOKEN_CLAIMABLE_FUNDING_AMOUNT_PER_SIZE",
      "outputs": [
        {
          "internalType": "bytes32",
          "name": "",
          "type": "bytes32"
        }
      ],
      "stateMutability": "view",
      "type": "function"
    },
    {
      "inputs": [],
      "name": "SIZE_IN_TOKENS",
      "outputs": [
        {
          "internalType": "bytes32",
          "name": "",
          "type": "bytes32"
        }
      ],
      "stateMutability": "view",
      "type": "function"
    },
    {
      "inputs": [],
      "name": "SIZE_IN_USD",
      "outputs": [
        {
          "internalType": "bytes32",
          "name": "",
          "type": "bytes32"
        }
      ],
      "stateMutability": "view",
      "type": "function"
    },
    {
      "inputs": [
        {
          "internalType": "contract DataStore",
          "name": "dataStore",
          "type": "DataStore"
        },
        {
          "internalType": "bytes32",
          "name": "key",
          "type": "bytes32"
        }
      ],
      "name": "get",
      "outputs": [
        {
          "components": [
            {
              "components": [
                {
                  "internalType": "address",
                  "name": "account",
                  "type": "address"
                },
                {
                  "internalType": "address",
                  "name": "market",
                  "type": "address"
                },
                {
                  "internalType": "address",
                  "name": "collateralToken",
                  "type": "address"
                }
              ],
              "internalType": "struct Position.Addresses",
              "name": "addresses",
              "type": "tuple"
            },
            {
              "components": [
                {
                  "internalType": "uint256",
                  "name": "sizeInUsd",
                  "type": "uint256"
                },
                {
                  "internalType": "uint256",
                  "name": "sizeInTokens",
                  "type": "uint256"
                },
                {
                  "internalType": "uint256",
                  "name": "collateralAmount",
                  "type": "uint256"
                },
                {
                  "internalType": "uint256",
                  "name": "borrowingFactor",
                  "type": "uint256"
                },
                {
                  "internalType": "uint256",
                  "name": "fundingFeeAmountPerSize",
                  "type": "uint256"
                },
                {
                  "internalType": "uint256",
                  "name": "longTokenClaimableFundingAmountPerSize",
                  "type": "uint256"
                },
                {
                  "internalType": "uint256",
                  "name": "shortTokenClaimableFundingAmountPerSize",
                  "type": "uint256"
                },
                {
                  "internalType": "uint256",
                  "name": "increasedAtBlock",
                  "type": "uint256"
                },
                {
                  "internalType": "uint256",
                  "name": "decreasedAtBlock",
                  "type": "uint256"
                }
              ],
              "internalType": "struct Position.Numbers",
              "name": "numbers",
              "type": "tuple"
            },
            {
              "components": [
                {
                  "internalType": "bool",
                  "name": "isLong",
                  "type": "bool"
                }
              ],
              "internalType": "struct Position.Flags",
              "name": "flags",
              "type": "tuple"
            }
          ],
          "internalType": "struct Position.Props",
          "name": "",
          "type": "tuple"
        }
      ],
      "stateMutability": "view",
      "type": "function"
    }
  ],
  "transactionHash": "0x4ea5aa2b1589875699c69d30b78f41bccee2666cac70a5c3a0c2ac6e1c79071d",
  "args": [],
  "numDeployments": 1,
  "solcInputHash": "0156edc567de6ea182d3907607577999",
  "bytecode": "0x612ac861003a600b82828239805160001a60731461002d57634e487b7160e01b600052600060045260246000fd5b30600052607381538281f3fe73000000000000000000000000000000000000000030146080604052600436106100da5760003560e01c806318ed19e1146100df57806321cd56bf146101015780633332c5be1461011c57806355179790146101245780635c0ca0a01461012c57806372374d971461013457806374b6fe131461013c578063a5ec72751461015c578063b837888f14610164578063d276322c1461016c578063e90524f214610174578063ed955e201461017c578063f01cce5214610184578063f46f16c21461018c578063f5f1f1a714610194578063fdfc26f31461019c575b600080fd5b8180156100eb57600080fd5b506100ff6100fa366004612546565b6101bc565b005b610109610d09565b6040519081526020015b60405180910390f35b610109610d31565b610109610d40565b610109610d4f565b610109610d5e565b81801561014857600080fd5b506100ff61015736600461267f565b610d6d565b6101096117d1565b6101096117e0565b6101096117ef565b6101096117fe565b61010961180d565b61010961181c565b61010961182b565b61010961183a565b6101af6101aa3660046126c1565b611849565b60405161011391906126ed565b826001600160a01b031663c80f4c626040516020016101da9061279f565b60405160208183030381529060405280519060200120846040518363ffffffff1660e01b815260040161020e9291906127c6565b600060405180830381600087803b15801561022857600080fd5b505af115801561023c573d6000803e3d6000fd5b50505050826001600160a01b031663c80f4c6261026061025b84515190565b61234d565b846040518363ffffffff1660e01b815260040161027e9291906127c6565b600060405180830381600087803b15801561029857600080fd5b505af11580156102ac573d6000803e3d6000fd5b50505050826001600160a01b031663ca446dd9836040516020016102cf906127d4565b604051602081830303815290604052805190602001206040516020016102f69291906127c6565b6040516020818303038152906040528051906020012061031584515190565b6040518363ffffffff1660e01b81526004016103329291906127f5565b6020604051808303816000875af1158015610351573d6000803e3d6000fd5b505050506040513d601f19601f82011682018060405250810190610375919061280c565b50826001600160a01b031663ca446dd98360405160200161039590612829565b604051602081830303815290604052805190602001206040516020016103bc9291906127c6565b604051602081830303815290604052805190602001206103de84516020015190565b6040518363ffffffff1660e01b81526004016103fb9291906127f5565b6020604051808303816000875af115801561041a573d6000803e3d6000fd5b505050506040513d601f19601f8201168201806040525081019061043e919061280c565b50826001600160a01b031663ca446dd98360405160200161045e90612849565b604051602081830303815290604052805190602001206040516020016104859291906127c6565b604051602081830303815290604052805190602001206104a784516040015190565b6040518363ffffffff1660e01b81526004016104c49291906127f5565b6020604051808303816000875af11580156104e3573d6000803e3d6000fd5b505050506040513d601f19601f82011682018060405250810190610507919061280c565b50826001600160a01b031663e2a4853a8360405160200161052790612873565b6040516020818303038152906040528051906020012060405160200161054e9291906127c6565b6040516020818303038152906040528051906020012061057084602001515190565b6040518363ffffffff1660e01b815260040161058d9291906127c6565b6020604051808303816000875af11580156105ac573d6000803e3d6000fd5b505050506040513d601f19601f820116820180604052508101906105d09190612898565b50826001600160a01b031663e2a4853a836040516020016105f0906128b1565b604051602081830303815290604052805190602001206040516020016106179291906127c6565b6040516020818303038152906040528051906020012061063c84602090810151015190565b6040518363ffffffff1660e01b81526004016106599291906127c6565b6020604051808303816000875af1158015610678573d6000803e3d6000fd5b505050506040513d601f19601f8201168201806040525081019061069c9190612898565b50826001600160a01b031663e2a4853a836040516020016106bc906128d9565b604051602081830303815290604052805190602001206040516020016106e39291906127c6565b6040516020818303038152906040528051906020012061070884602001516040015190565b6040518363ffffffff1660e01b81526004016107259291906127c6565b6020604051808303816000875af1158015610744573d6000803e3d6000fd5b505050506040513d601f19601f820116820180604052508101906107689190612898565b50826001600160a01b031663e2a4853a8360405160200161078890612904565b604051602081830303815290604052805190602001206040516020016107af9291906127c6565b604051602081830303815290604052805190602001206107d484602001516060015190565b6040518363ffffffff1660e01b81526004016107f19291906127c6565b6020604051808303816000875af1158015610810573d6000803e3d6000fd5b505050506040513d601f19601f820116820180604052508101906108349190612898565b50826001600160a01b031663e2a4853a836040516020016108549061292e565b6040516020818303038152906040528051906020012060405160200161087b9291906127c6565b604051602081830303815290604052805190602001206108a084602001516080015190565b6040518363ffffffff1660e01b81526004016108bd9291906127c6565b6020604051808303816000875af11580156108dc573d6000803e3d6000fd5b505050506040513d601f19601f820116820180604052508101906109009190612898565b50826001600160a01b031663e2a4853a8360405160200161092090612963565b604051602081830303815290604052805190602001206040516020016109479291906127c6565b6040516020818303038152906040528051906020012061096c846020015160a0015190565b6040518363ffffffff1660e01b81526004016109899291906127c6565b6020604051808303816000875af11580156109a8573d6000803e3d6000fd5b505050506040513d601f19601f820116820180604052508101906109cc9190612898565b50826001600160a01b031663e2a4853a836040516020016109ec906129af565b60405160208183030381529060405280519060200120604051602001610a139291906127c6565b60405160208183030381529060405280519060200120610a38846020015160c0015190565b6040518363ffffffff1660e01b8152600401610a559291906127c6565b6020604051808303816000875af1158015610a74573d6000803e3d6000fd5b505050506040513d601f19601f82011682018060405250810190610a989190612898565b50826001600160a01b031663e2a4853a83604051602001610ab8906129fc565b60405160208183030381529060405280519060200120604051602001610adf9291906127c6565b60405160208183030381529060405280519060200120610b04846020015160e0015190565b6040518363ffffffff1660e01b8152600401610b219291906127c6565b6020604051808303816000875af1158015610b40573d6000803e3d6000fd5b505050506040513d601f19601f82011682018060405250810190610b649190612898565b50826001600160a01b031663e2a4853a83604051602001610b8490612a28565b60405160208183030381529060405280519060200120604051602001610bab9291906127c6565b60405160208183030381529060405280519060200120610bd18460200151610100015190565b6040518363ffffffff1660e01b8152600401610bee9291906127c6565b6020604051808303816000875af1158015610c0d573d6000803e3d6000fd5b505050506040513d601f19601f82011682018060405250810190610c319190612898565b50826001600160a01b031663abfdcced83604051602001610c5190612a54565b60405160208183030381529060405280519060200120604051602001610c789291906127c6565b60405160208183030381529060405280519060200120610c9a84604001515190565b6040516001600160e01b031960e085901b1681526004810192909252151560248201526044016020604051808303816000875af1158015610cdf573d6000803e3d6000fd5b505050506040513d601f19601f82011682018060405250810190610d039190612a75565b50505050565b604051602001610d18906128b1565b6040516020818303038152906040528051906020012081565b604051602001610d1890612a54565b604051602001610d1890612904565b604051602001610d18906129af565b604051602001610d1890612a28565b826001600160a01b03166391d4403c604051602001610d8b9061279f565b60405160208183030381529060405280519060200120846040518363ffffffff1660e01b8152600401610dbf9291906127c6565b602060405180830381865afa158015610ddc573d6000803e3d6000fd5b505050506040513d601f19601f82011682018060405250810190610e009190612a75565b610e2457604051630426cfff60e41b81526004810183905260240160405180910390fd5b826001600160a01b0316639921c3cc604051602001610e429061279f565b60405160208183030381529060405280519060200120846040518363ffffffff1660e01b8152600401610e769291906127c6565b600060405180830381600087803b158015610e9057600080fd5b505af1158015610ea4573d6000803e3d6000fd5b50505050826001600160a01b0316639921c3cc610ec08361234d565b846040518363ffffffff1660e01b8152600401610ede9291906127c6565b600060405180830381600087803b158015610ef857600080fd5b505af1158015610f0c573d6000803e3d6000fd5b50505050826001600160a01b0316639faf6fb683604051602001610f2f906127d4565b60405160208183030381529060405280519060200120604051602001610f569291906127c6565b604051602081830303815290604052805190602001206040518263ffffffff1660e01b8152600401610f8a91815260200190565b600060405180830381600087803b158015610fa457600080fd5b505af1158015610fb8573d6000803e3d6000fd5b50505050826001600160a01b0316639faf6fb683604051602001610fdb90612829565b604051602081830303815290604052805190602001206040516020016110029291906127c6565b604051602081830303815290604052805190602001206040518263ffffffff1660e01b815260040161103691815260200190565b600060405180830381600087803b15801561105057600080fd5b505af1158015611064573d6000803e3d6000fd5b50505050826001600160a01b0316639faf6fb68360405160200161108790612849565b604051602081830303815290604052805190602001206040516020016110ae9291906127c6565b604051602081830303815290604052805190602001206040518263ffffffff1660e01b81526004016110e291815260200190565b600060405180830381600087803b1580156110fc57600080fd5b505af1158015611110573d6000803e3d6000fd5b50505050826001600160a01b03166342c3bd968360405160200161113390612873565b6040516020818303038152906040528051906020012060405160200161115a9291906127c6565b604051602081830303815290604052805190602001206040518263ffffffff1660e01b815260040161118e91815260200190565b600060405180830381600087803b1580156111a857600080fd5b505af11580156111bc573d6000803e3d6000fd5b50505050826001600160a01b03166342c3bd96836040516020016111df906128b1565b604051602081830303815290604052805190602001206040516020016112069291906127c6565b604051602081830303815290604052805190602001206040518263ffffffff1660e01b815260040161123a91815260200190565b600060405180830381600087803b15801561125457600080fd5b505af1158015611268573d6000803e3d6000fd5b50505050826001600160a01b03166342c3bd968360405160200161128b906128d9565b604051602081830303815290604052805190602001206040516020016112b29291906127c6565b604051602081830303815290604052805190602001206040518263ffffffff1660e01b81526004016112e691815260200190565b600060405180830381600087803b15801561130057600080fd5b505af1158015611314573d6000803e3d6000fd5b50505050826001600160a01b03166342c3bd968360405160200161133790612904565b6040516020818303038152906040528051906020012060405160200161135e9291906127c6565b604051602081830303815290604052805190602001206040518263ffffffff1660e01b815260040161139291815260200190565b600060405180830381600087803b1580156113ac57600080fd5b505af11580156113c0573d6000803e3d6000fd5b50505050826001600160a01b03166342c3bd96836040516020016113e39061292e565b6040516020818303038152906040528051906020012060405160200161140a9291906127c6565b604051602081830303815290604052805190602001206040518263ffffffff1660e01b815260040161143e91815260200190565b600060405180830381600087803b15801561145857600080fd5b505af115801561146c573d6000803e3d6000fd5b50505050826001600160a01b03166342c3bd968360405160200161148f90612963565b604051602081830303815290604052805190602001206040516020016114b69291906127c6565b604051602081830303815290604052805190602001206040518263ffffffff1660e01b81526004016114ea91815260200190565b600060405180830381600087803b15801561150457600080fd5b505af1158015611518573d6000803e3d6000fd5b50505050826001600160a01b03166342c3bd968360405160200161153b906129af565b604051602081830303815290604052805190602001206040516020016115629291906127c6565b604051602081830303815290604052805190602001206040518263ffffffff1660e01b815260040161159691815260200190565b600060405180830381600087803b1580156115b057600080fd5b505af11580156115c4573d6000803e3d6000fd5b50505050826001600160a01b03166342c3bd96836040516020016115e7906129fc565b6040516020818303038152906040528051906020012060405160200161160e9291906127c6565b604051602081830303815290604052805190602001206040518263ffffffff1660e01b815260040161164291815260200190565b600060405180830381600087803b15801561165c57600080fd5b505af1158015611670573d6000803e3d6000fd5b50505050826001600160a01b03166342c3bd968360405160200161169390612a28565b604051602081830303815290604052805190602001206040516020016116ba9291906127c6565b604051602081830303815290604052805190602001206040518263ffffffff1660e01b81526004016116ee91815260200190565b600060405180830381600087803b15801561170857600080fd5b505af115801561171c573d6000803e3d6000fd5b50505050826001600160a01b0316639fe7ac128360405160200161173f90612a54565b604051602081830303815290604052805190602001206040516020016117669291906127c6565b604051602081830303815290604052805190602001206040518263ffffffff1660e01b815260040161179a91815260200190565b600060405180830381600087803b1580156117b457600080fd5b505af11580156117c8573d6000803e3d6000fd5b50505050505050565b604051602001610d18906129fc565b604051602001610d1890612963565b604051602001610d18906128d9565b604051602001610d18906127d4565b604051602001610d1890612873565b604051602001610d189061292e565b604051602001610d1890612829565b604051602001610d1890612849565b6118516123cd565b6118596123cd565b836001600160a01b03166391d4403c6040516020016118779061279f565b60405160208183030381529060405280519060200120856040518363ffffffff1660e01b81526004016118ab9291906127c6565b602060405180830381865afa1580156118c8573d6000803e3d6000fd5b505050506040513d601f19601f820116820180604052508101906118ec9190612a75565b6118f7579050612347565b6119c6846001600160a01b03166321f8a72185604051602001611919906127d4565b604051602081830303815290604052805190602001206040516020016119409291906127c6565b604051602081830303815290604052805190602001206040518263ffffffff1660e01b815260040161197491815260200190565b602060405180830381865afa158015611991573d6000803e3d6000fd5b505050506040513d601f19601f820116820180604052508101906119b5919061280c565b82516001600160a01b039091169052565b611a99846001600160a01b03166321f8a721856040516020016119e890612829565b60405160208183030381529060405280519060200120604051602001611a0f9291906127c6565b604051602081830303815290604052805190602001206040518263ffffffff1660e01b8152600401611a4391815260200190565b602060405180830381865afa158015611a60573d6000803e3d6000fd5b505050506040513d601f19601f82011682018060405250810190611a84919061280c565b82516001600160a01b03909116602090910152565b611b6c846001600160a01b03166321f8a72185604051602001611abb90612849565b60405160208183030381529060405280519060200120604051602001611ae29291906127c6565b604051602081830303815290604052805190602001206040518263ffffffff1660e01b8152600401611b1691815260200190565b602060405180830381865afa158015611b33573d6000803e3d6000fd5b505050506040513d601f19601f82011682018060405250810190611b57919061280c565b82516001600160a01b03909116604090910152565b611c32846001600160a01b031663bd02d0f585604051602001611b8e90612873565b60405160208183030381529060405280519060200120604051602001611bb59291906127c6565b604051602081830303815290604052805190602001206040518263ffffffff1660e01b8152600401611be991815260200190565b602060405180830381865afa158015611c06573d6000803e3d6000fd5b505050506040513d601f19601f82011682018060405250810190611c2a9190612898565b602083015152565b611cfa846001600160a01b031663bd02d0f585604051602001611c54906128b1565b60405160208183030381529060405280519060200120604051602001611c7b9291906127c6565b604051602081830303815290604052805190602001206040518263ffffffff1660e01b8152600401611caf91815260200190565b602060405180830381865afa158015611ccc573d6000803e3d6000fd5b505050506040513d601f19601f82011682018060405250810190611cf09190612898565b6020808401510152565b611dc3846001600160a01b031663bd02d0f585604051602001611d1c906128d9565b60405160208183030381529060405280519060200120604051602001611d439291906127c6565b604051602081830303815290604052805190602001206040518263ffffffff1660e01b8152600401611d7791815260200190565b602060405180830381865afa158015611d94573d6000803e3d6000fd5b505050506040513d601f19601f82011682018060405250810190611db89190612898565b602083015160400152565b611e8c846001600160a01b031663bd02d0f585604051602001611de590612904565b60405160208183030381529060405280519060200120604051602001611e0c9291906127c6565b604051602081830303815290604052805190602001206040518263ffffffff1660e01b8152600401611e4091815260200190565b602060405180830381865afa158015611e5d573d6000803e3d6000fd5b505050506040513d601f19601f82011682018060405250810190611e819190612898565b602083015160600152565b611f55846001600160a01b031663bd02d0f585604051602001611eae9061292e565b60405160208183030381529060405280519060200120604051602001611ed59291906127c6565b604051602081830303815290604052805190602001206040518263ffffffff1660e01b8152600401611f0991815260200190565b602060405180830381865afa158015611f26573d6000803e3d6000fd5b505050506040513d601f19601f82011682018060405250810190611f4a9190612898565b602083015160800152565b61201e846001600160a01b031663bd02d0f585604051602001611f7790612963565b60405160208183030381529060405280519060200120604051602001611f9e9291906127c6565b604051602081830303815290604052805190602001206040518263ffffffff1660e01b8152600401611fd291815260200190565b602060405180830381865afa158015611fef573d6000803e3d6000fd5b505050506040513d601f19601f820116820180604052508101906120139190612898565b602083015160a00152565b6120e7846001600160a01b031663bd02d0f585604051602001612040906129af565b604051602081830303815290604052805190602001206040516020016120679291906127c6565b604051602081830303815290604052805190602001206040518263ffffffff1660e01b815260040161209b91815260200190565b602060405180830381865afa1580156120b8573d6000803e3d6000fd5b505050506040513d601f19601f820116820180604052508101906120dc9190612898565b602083015160c00152565b6121b0846001600160a01b031663bd02d0f585604051602001612109906129fc565b604051602081830303815290604052805190602001206040516020016121309291906127c6565b604051602081830303815290604052805190602001206040518263ffffffff1660e01b815260040161216491815260200190565b602060405180830381865afa158015612181573d6000803e3d6000fd5b505050506040513d601f19601f820116820180604052508101906121a59190612898565b602083015160e00152565b61227a846001600160a01b031663bd02d0f5856040516020016121d290612a28565b604051602081830303815290604052805190602001206040516020016121f99291906127c6565b604051602081830303815290604052805190602001206040518263ffffffff1660e01b815260040161222d91815260200190565b602060405180830381865afa15801561224a573d6000803e3d6000fd5b505050506040513d601f19601f8201168201806040525081019061226e9190612898565b60208301516101000152565b612344846001600160a01b0316637ae1cfca8560405160200161229c90612a54565b604051602081830303815290604052805190602001206040516020016122c39291906127c6565b604051602081830303815290604052805190602001206040518263ffffffff1660e01b81526004016122f791815260200190565b602060405180830381865afa158015612314573d6000803e3d6000fd5b505050506040513d601f19601f820116820180604052508101906123389190612a75565b60408301519015159052565b90505b92915050565b6000604051602001612388906020808252601590820152741050d0d3d5539517d413d4d2551253d397d31254d5605a1b604082015260600190565b60405160208183030381529060405280519060200120826040516020016123b09291906127f5565b604051602081830303815290604052805190602001209050919050565b6040805160c081019091526000606082018181526080830182905260a0830191909152819081526020016124466040518061012001604052806000815260200160008152602001600081526020016000815260200160008152602001600081526020016000815260200160008152602001600081525090565b81526040805160208181019092526000815291015290565b6001600160a01b038116811461247357600080fd5b50565b604051606081016001600160401b03811182821017156124a657634e487b7160e01b600052604160045260246000fd5b60405290565b60405161012081016001600160401b03811182821017156124a657634e487b7160e01b600052604160045260246000fd5b801515811461247357600080fd5b6000602082840312156124fd57600080fd5b604051602081016001600160401b038111828210171561252d57634e487b7160e01b600052604160045260246000fd5b604052905080823561253e816124dd565b905292915050565b60008060008385036101e081121561255d57600080fd5b84356125688161245e565b935060208501359250603f1981016101a08082121561258657600080fd5b61258e612476565b606083121561259c57600080fd5b6125a4612476565b925060408801356125b48161245e565b835260608801356125c48161245e565b602084015260808801356125d78161245e565b604084015291825261012091609f1984018313156125f457600080fd5b6125fc6124ac565b935060a0880135845260c0880135602085015260e0880135604085015261010080890135606086015283890135608086015261014089013560a086015261016089013560c086015261018089013560e086015282890135818601525083602082015261266c896101c08a016124eb565b6040820152809450505050509250925092565b60008060006060848603121561269457600080fd5b833561269f8161245e565b92506020840135915060408401356126b68161245e565b809150509250925092565b600080604083850312156126d457600080fd5b82356126df8161245e565b946020939093013593505050565b60006101a082019050825160018060a01b03808251168452806020830151166020850152806040830151166040850152505060208301518051606084015260208101516080840152604081015160a0840152606081015160c0840152608081015160e084015260a0810151610100818186015260c083015161012086015260e08301516101408601528083015161016086015250505060408301516127986101808401825115159052565b5092915050565b6020808252600d908201526c1413d4d2551253d397d31254d5609a1b604082015260600190565b918252602082015260400190565b6020808252600790820152661050d0d3d5539560ca1b604082015260600190565b9182526001600160a01b0316602082015260400190565b60006020828403121561281e57600080fd5b81516123448161245e565b60208082526006908201526513505492d15560d21b604082015260600190565b60208082526010908201526f21a7a62620aa22a920a62faa27a5a2a760811b604082015260600190565b6020808252600b908201526a14d2569157d25397d554d160aa1b604082015260600190565b6000602082840312156128aa57600080fd5b5051919050565b6020808252600e908201526d53495a455f494e5f544f4b454e5360901b604082015260600190565b60208082526011908201527010d3d31310551154905317d05353d55395607a1b604082015260600190565b60208082526010908201526f2127a92927aba4a723afa320a1aa27a960811b604082015260600190565b6020808252601b908201527a46554e44494e475f4645455f414d4f554e545f5045525f53495a4560281b604082015260600190565b6020808252602c908201527f4c4f4e475f544f4b454e5f434c41494d41424c455f46554e44494e475f414d4f60408201526b554e545f5045525f53495a4560a01b606082015260800190565b6020808252602d908201527f53484f52545f544f4b454e5f434c41494d41424c455f46554e44494e475f414d60408201526c4f554e545f5045525f53495a4560981b606082015260800190565b602080825260129082015271494e435245415345445f41545f424c4f434b60701b604082015260600190565b6020808252601290820152714445435245415345445f41545f424c4f434b60701b604082015260600190565b60208082526007908201526649535f4c4f4e4760c81b604082015260600190565b600060208284031215612a8757600080fd5b8151612344816124dd56fea2646970667358221220cfba82f258fe067d655ebb4f0a210dbbf5004fdac5b748307c64e3e188e240c464736f6c63430008120033",
  "libraries": {},
  "devdoc": {
    "details": "Library for position storage functions",
    "kind": "dev",
    "methods": {},
    "title": "PositionStoreUtils",
    "version": 1
  },
  "userdoc": {
    "kind": "user",
    "methods": {},
    "version": 1
  },
  "storageLayout": {
    "storage": [],
    "types": null
  }
}